{
    "contractName": "Transactions",
    "abi": [
        {
            "anonymous": false,
            "inputs": [
                {
                    "indexed": false,
                    "internalType": "address",
                    "name": "from",
                    "type": "address"
                },
                {
                    "indexed": false,
                    "internalType": "address",
                    "name": "receiver",
                    "type": "address"
                },
                {
                    "indexed": false,
                    "internalType": "uint256",
                    "name": "amount",
                    "type": "uint256"
                },
                {
                    "indexed": false,
                    "internalType": "string",
                    "name": "message",
                    "type": "string"
                },
                {
                    "indexed": false,
                    "internalType": "uint256",
                    "name": "timestamp",
                    "type": "uint256"
                },
                {
                    "indexed": false,
                    "internalType": "string",
                    "name": "keyword",
                    "type": "string"
                }
            ],
            "name": "Transfer",
            "type": "event"
        },
        {
            "inputs": [
                {
                    "internalType": "address payable",
                    "name": "receiver",
                    "type": "address"
                },
                {
                    "internalType": "uint256",
                    "name": "amount",
                    "type": "uint256"
                },
                {
                    "internalType": "string",
                    "name": "message",
                    "type": "string"
                },
                {
                    "internalType": "string",
                    "name": "keyword",
                    "type": "string"
                }
            ],
            "name": "addToBlockchain",
            "outputs": [],
            "stateMutability": "nonpayable",
            "type": "function"
        },
        {
            "inputs": [],
            "name": "getTransactions",
            "outputs": [
                {
                    "components": [
                        {
                            "internalType": "address",
                            "name": "sender",
                            "type": "address"
                        },
                        {
                            "internalType": "address",
                            "name": "receiver",
                            "type": "address"
                        },
                        {
                            "internalType": "uint256",
                            "name": "amount",
                            "type": "uint256"
                        },
                        {
                            "internalType": "string",
                            "name": "message",
                            "type": "string"
                        },
                        {
                            "internalType": "uint256",
                            "name": "timestamp",
                            "type": "uint256"
                        },
                        {
                            "internalType": "string",
                            "name": "keyword",
                            "type": "string"
                        }
                    ],
                    "internalType": "struct Transactions.TransferStruct[]",
                    "name": "",
                    "type": "tuple[]"
                }
            ],
            "stateMutability": "view",
            "type": "function"
        },
        {
            "inputs": [],
            "name": "getTransactionsCount",
            "outputs": [
                {
                    "internalType": "uint256",
                    "name": "",
                    "type": "uint256"
                }
            ],
            "stateMutability": "view",
            "type": "function"
        }
    ],
    "bytecode": "608060405234801561001057600080fd5b506107a3806100206000396000f3fe608060405234801561001057600080fd5b50600436106100415760003560e01c8063578cb8f91461004657806383920e901461005c578063cc2d7ead14610071575b600080fd5b6000546040519081526020015b60405180910390f35b610064610086565b60405161005391906104c4565b61008461007f366004610628565b610241565b005b60606001805480602002602001604051908101604052809291908181526020016000905b828210156102385760008481526020908190206040805160c0810182526006860290920180546001600160a01b0390811684526001820154169383019390935260028301549082015260038201805491929160608401919061010b906106b4565b80601f0160208091040260200160405190810160405280929190818152602001828054610137906106b4565b80156101845780601f1061015957610100808354040283529160200191610184565b820191906000526020600020905b81548152906001019060200180831161016757829003601f168201915b50505050508152602001600482015481526020016005820180546101a7906106b4565b80601f01602080910402602001604051908101604052809291908181526020018280546101d3906106b4565b80156102205780601f106101f557610100808354040283529160200191610220565b820191906000526020600020905b81548152906001019060200180831161020357829003601f168201915b505050505081525050815260200190600101906100aa565b50505050905090565b600080549080610250836106ee565b90915550506040805160c0810182523381526001600160a01b0386811660208084019182529383018781526060840187815242608086015260a08501879052600180548082018255600091909152855160069091027fb10e2d527612073b26eecdfd717e6a320cf44b4afac2b0732d9fcbe2b7fa0cf6810180549287166001600160a01b031993841617815594517fb10e2d527612073b26eecdfd717e6a320cf44b4afac2b0732d9fcbe2b7fa0cf7820180549190971692169190911790945590517fb10e2d527612073b26eecdfd717e6a320cf44b4afac2b0732d9fcbe2b7fa0cf88401555180519394919361036e937fb10e2d527612073b26eecdfd717e6a320cf44b4afac2b0732d9fcbe2b7fa0cf9019291909101906103de565b506080820151600482015560a082015180516103949160058401916020909101906103de565b5050507f416cfa4330a4565f45c2fd2dd4826a83a37443aba2ce6f79477c7355afac35fa3385858542866040516103d096959493929190610715565b60405180910390a150505050565b8280546103ea906106b4565b90600052602060002090601f01602090048101928261040c5760008555610452565b82601f1061042557805160ff1916838001178555610452565b82800160010185558215610452579182015b82811115610452578251825591602001919060010190610437565b5061045e929150610462565b5090565b5b8082111561045e5760008155600101610463565b6000815180845260005b8181101561049d57602081850181015186830182015201610481565b818111156104af576000602083870101525b50601f01601f19169290920160200192915050565b60006020808301818452808551808352604092508286019150828160051b87010184880160005b8381101561057757888303603f19018552815180516001600160a01b039081168552888201511688850152868101518785015260608082015160c0828701819052919061053a83880182610477565b92505050608080830151818701525060a080830151925085820381870152506105638183610477565b9689019694505050908601906001016104eb565b509098975050505050505050565b634e487b7160e01b600052604160045260246000fd5b600082601f8301126105ac57600080fd5b813567ffffffffffffffff808211156105c7576105c7610585565b604051601f8301601f19908116603f011681019082821181831017156105ef576105ef610585565b8160405283815286602085880101111561060857600080fd5b836020870160208301376000602085830101528094505050505092915050565b6000806000806080858703121561063e57600080fd5b84356001600160a01b038116811461065557600080fd5b935060208501359250604085013567ffffffffffffffff8082111561067957600080fd5b6106858883890161059b565b9350606087013591508082111561069b57600080fd5b506106a88782880161059b565b91505092959194509250565b600181811c908216806106c857607f821691505b6020821081036106e857634e487b7160e01b600052602260045260246000fd5b50919050565b60006001820161070e57634e487b7160e01b600052601160045260246000fd5b5060010190565b6001600160a01b038781168252861660208201526040810185905260c06060820181905260009061074890830186610477565b84608084015282810360a08401526107608185610477565b999850505050505050505056fea26469706673582212202c010b807a5c5aee03c5eba0d2016664f0e787218f4af4ae5652668d83a43b4164736f6c634300080d0033",
    "sourcePath": "/home/moneymoves/Desktop/Projects/Web3Exchange/SmartContract/contracts/Transactions.sol",
    "compiler": {
        "name": "solc",
        "version": "0.8.13+commit.abaa5c0e"
    },
    "functionHashes": {
        "addToBlockchain(address,uint256,string,string)": "cc2d7ead",
        "getTransactions()": "83920e90",
        "getTransactionsCount()": "578cb8f9"
    },
    "gasEstimates": {
        "creation": {
            "codeDepositCost": "391000",
            "executionCost": "430",
            "totalCost": "391430"
        },
        "external": {
            "addToBlockchain(address,uint256,string,string)": "infinite",
            "getTransactions()": "infinite",
            "getTransactionsCount()": "2247"
        }
    }
}